:04000000FCEF00F021
:060008004A8209ED09F037
:100018004A80D8CF68F0E8CF69F0E0CF6AF0FACF2D
:100028006BF0FBCF6CF0E9CF6DF0EACF6EF0E1CF6B
:100038006FF0E2CF70F0D9CF71F0DACF72F0F3CF72
:1000480073F0F4CF74F0F6CF75F0F7CF76F0F8CF01
:1000580077F0F5CF78F04AC079F04BC07AF04CC011
:100068007BF04DC07CF09E9C0001CF2BC350C4CFC9
:1000780066F0676B66C067F0666B6627000E6723DD
:1000880066C044F067C045F0000E45BEFF0E466EE0
:10009800476E48504910D8B40DD0000E496E000E76
:1000A800486E44C0C4F045C0C5F046C0C6F047C05D
:1000B800C7F028D0670E276E9C0E286E400E296E5A
:1000C80044C01BF045C01CF046C01DF047C01EF0E0
:1000D8008FEC0BF01BC024F01CC025F01DC026F0CF
:1000E8008FEC08F024C033F025C034F026C035F07A
:1000F80098EC07F033C0C8F034C0C9F035C0CAF076
:1001080036C0CBF0F0A023D0F0903F503E1012E163
:10011800F40E3C5C010E3D58D8B00CD00A0E3C24BD
:100128003C6E000E3D203D6E000E3E203E6E000EE1
:100138003F203F6E0D0E0001676FAF0E666FB60E63
:10014800E82EFED7662FFCD7672FFAD700F0F0A26B
:1001580023D0F0923F503E1006E15F0E3C5C010E4A
:100168003D58D8A00CD0F60E3C243C6EFF0E3D2026
:100178003D6EFF0E3E203E6EFF0E3F203F6E0D0E81
:100188000001676FAF0E666FB60EE82EFED7662FBA
:10019800FCD7672FFAD700F07CC04DF07BC04CF03D
:1001A8007AC04BF079C04AF078C0F5FF77C0F8FF05
:1001B80076C0F7FF75C0F6FF74C0F4FF73C0F3FF95
:1001C80072C0DAFF71C0D9FF70C0E2FF6FC0E1FFF3
:1001D8006EC0EAFF6DC0E9FF6CC0FBFF6BC0FAFFA1
:1001E8006AC0E0FF69C0E8FF68C0D8FF4A90100005
:0401F800BDEF0BF05C
:100800000052617A616F3A0054613A0054723A00C2
:0108100000E7
:100812009268000E946E9368BD86BD84BD92BD90B1
:10082200CA9CCA9ACA98CA96CA84CA92CA80BF0E79
:10083200CB6E9D8C9E9C9F9CC29AC298C296C2947B
:10084200C280D08EF28EF28CF086F088F19AF19806
:10085200F090F092F09CF09EF19EC50ED56E640E63
:10086200D66E92800B0EC16E950EC06EF294F28A15
:10087200F184640ED66EBA86BA84280E18EC0AF099
:10088200010E27EC0CF00D0E0001B86FFB0EE82EE6
:10089200FED7B82FFCD700D0640E0001CF19D8A420
:1008A200FBD7400EA06F060EA16F440EA26F480E3A
:1008B200916F610E926F3E0E936FC4C085F0C5C0FA
:1008C20086F0C6C087F0C7C088F060EC0BF085C028
:1008D2008EF086C08FF087C090F014EC08F08EC0C6
:1008E2009DF08FC09EF090C09FF045EC06F09DC039
:1008F200A9F09EC0AAF09FC0ABF01CEC07F0A9C003
:10090200BCF0AAC0BDF0ABC0BEF0ACC0BFF00001ED
:10091200BC41E8423F0BBB6EBCC0B8F0BDC0B9F0F1
:10092200BEC0BAF0BFC0BBF0D890BB33BA33B93344
:10093200B833010EB817B83BB847BA50B819DF0B35
:10094200B819BA6EBCC0B8F0010EB817B83BBA50AD
:10095200B819EF0BB819BA6EC8C07DF0C9C07EF0E5
:10096200CAC07FF0CBC080F0640E816F000E826F30
:10097200000E836F000E846FB1EC0AF07DC000F1AF
:100982007EC001F1C8C07DF0C9C07EF0CAC07FF050
:10099200CBC080F0640E0001816F000E826F000EEA
:1009A200836F000E846F2CEC0BF07DC012F17EC0C1
:1009B20013F112C17DF013C17EF0000E0001806FB1
:1009C2000A0E7F6F6EEC0AF07DC002F17EC003F169
:1009D20012C17DF013C17EF0000E0001806F0A0E7D
:1009E2007F6FF3EC0AF07DC004F17EC005F1800E4A
:1009F20027EC0CF0080E00017E6F080E7F6F66EC8C
:100A02000CF001010051300F05EC0CF00101025114
:100A1200300F05EC0CF02C0E05EC0CF0010104512A
:100A2200300F05EC0CF03CC07DF03DC07EF03EC0C6
:100A32007FF03FC080F0640E0001816F000E826F74
:100A4200000E836F000E846FB1EC0AF07DC006F1D8
:100A52007EC007F13CC07DF03DC07EF03EC07FF01D
:100A62003FC080F0640E0001816F000E826F000EA5
:100A7200836F000E846F2CEC0BF07DC008F17EC0FA
:100A820009F108C17DF009C17EF0000E0001806FFE
:100A92000A0E7F6F6EEC0AF07DC00AF17EC00BF188
:100AA200890E27EC0CF00C0E00017E6F080E7F6F92
:100AB20066EC0CF001010651300F05EC0CF001015F
:100AC2000A51300F05EC0CF03CC0B8F03DC0B9F053
:100AD2000001B81FB91FB84BB92BC851B825D06F48
:100AE200C951B921D16FD1BF05D0D15107E1D0058C
:100AF200D8B004D0000ED16F000E0BD0D1BF0AD0F7
:100B0200D15104E1020ED05DD8A004D0000ED16F05
:100B1200010ED06FD0C07DF0D1C07EF0030E806F89
:100B2200000E7F6F81EC0CF000017DC0C0F07EC032
:100B3200C1F0000EC1BFFF0EC26FC36FC0C0B8F0DC
:100B4200C1C0B9F0C2C0BAF0C3C0BBF0030E05D039
:100B5200D890BB33BA33B933B833E82EF9D7B8518A
:100B6200BE6EC0C0B8F0010EB817B83BBD50B81980
:100B7200EF0BB819BD6EC0C0B8F0C1C0B9F0C2C0A9
:100B8200BAF0C3C0BBF0D890BB33BA33B933B83371
:100B9200010EB817B83BB847BD50B819DF0BB819EA
:100BA200BD6E000E916FC80E926F420E936FCCC055
:100BB2008EF0CDC08FF0CEC090F014EC08F08EC055
:100BC200A9F08FC0AAF090C0ABF01CEC07F0A9C04E
:100BD20014F1AAC015F1C30E27EC0CF0010E0001AE
:100BE2007E6F080E7F6F66EC0CF014C17DF015C1AC
:100BF2007EF0000E0001806F640E7F6F6EEC0AF0D3
:100C02007DC00CF17EC00DF114C17DF015C17EF0E6
:100C1200000E0001806F640E7F6FF3EC0AF07DC05E
:100C220016F17EC017F116C17DF017C17EF0000EDD
:100C32000001806F0A0E7F6F6EEC0AF07DC00EF12C
:100C42007EC00FF116C17DF017C17EF0000E0001CB
:100C5200806F0A0E7F6FF3EC0AF07DC010F17EC048
:100C620011F101010C51300F05EC0CF001010E5194
:100C7200300F05EC0CF001011051300F05EC0CF0B7
:100C8200250E05EC0CF008D69FC0A3F00001A46B62
:100C9200A56B9E35A33701E3A481A351A86FA2C01F
:100CA200A3F0A46BA56BA135A33701E3A481A351E3
:100CB200A76FA851D8B40BD0A751A85DD8B00ED059
:100CC200A8510008A725A36F180EA36507D0A0C0DE
:100CD2009DF0A1C09EF0A2C09FF01200A751D8B40F
:100CE2000BD0A851A75DD8B00ED0A7510008A825F7
:100CF200A36F180EA36507D09DC09DF09EC09EF005
:100D02009FC09FF01200060EA66F9FBFA68FA2BFC4
:100D1200A68D9E8FFF0E9D17FF0E9E17000E9F172A
:100D2200A18FFF0EA017FF0EA117000EA217A75149
:100D3200A85DD8B01BD0D890A037A137A237A7079B
:100D4200A851A719D8B40DD0A607A6C0A3F0070EC4
:100D5200A317D8B406D0EFD7D8909F339E339D33D4
:100D6200A82BA751A819D8B41FD0F6D7A851A75DB0
:100D7200D8B01AD0D8909D379E379F37A807A85170
:100D8200A719D8B40DD0A607A6C0A3F0070EA317C3
:100D9200D8B406D0EFD7D890A233A133A033A72B73
:100DA200A751A819D8A4F7D7A6AF0CD0FF0E9D1B48
:100DB200FF0E9E1BFF0E9F1B010E9D27000E9E2302
:100DC200000E9F23A6AD0CD0FF0EA01BFF0EA11B91
:100DD200FF0EA21B010EA027000EA123000EA223CC
:100DE200000EA66F9D51A0279E51A1239F51A223C1
:100DF200A2AF0ED0FF0EA01BFF0EA11BFF0EA21B67
:100E0200010EA027000EA123000EA223010EA66F41
:100E1200A0C07DF0A1C07EF0A2C07FF0A8C080F08B
:100E2200A6C081F069EC09F07DC09DF07EC09EF005
:100E32007FC09FF01200ABC0ADF00001AE6BAF6B94
:100E4200AA35AD3701E3AE81AD51B76FB751D8A422
:100E520009D0000EA96F000EAA6F000EAB6F000E34
:100E6200AC6F1200170EAD6FA9C0AEF0AAC0AFF002
:100E7200ABC0B0F0AD29B16F04D0D890B033AF336E
:100E8200AE33B12FFAD70001AE51B26FAA8FFF0E67
:100E9200A917FF0EAA17000EAB17A951B36FAA51DB
:100EA200B46FAB51B56FB66B8E0EB75FB7AF16D0DE
:100EB200B751800A8F0FD8B009D0000EA96F000E6B
:100EC200AA6F000EAB6F000EAC6F1200D890B63353
:100ED200B533B433B333B73FF9D715D0170EB7656F
:100EE2000FD0000EA96F000EAA6F000EAB6F000E9E
:100EF200AC6F1200D890B337B437B537B637B707EF
:100F0200B751D8A4F7D7B251D8B408D0B61FB51F7D
:100F1200B41FB36D000EB423B523B623B3C0A9F03A
:100F2200B4C0AAF0B5C0ABF0B6C0ACF0120035C088
:100F320037F0386A396A3434373601E3388037504B
:100F42000001656F6551D8A409D0000E336E000E02
:100F5200346E000E356E000E366E1200170E376EAE
:100F620033C038F034C039F035C03AF037283B6E20
:100F720004D0D8903A32393238323B2EFAD7385030
:100F82000001606F348EFF0E3316FF0E3416000E12
:100F920035163350616F3450626F3550636F646B36
:100FA2008E0E655F65AF16D06551800A8F0FD8B07F
:100FB20009D0000E336E000E346E000E356E000E38
:100FC200366E1200D8906433633362336133653F07
:100FD200F9D715D0170E65650FD0000E336E000ECF
:100FE200346E000E356E000E366E1200D8906137E8
:100FF20062376337643765076551D8A4F7D7605104
:10100200D8B408D0641F631F621F616D000E622393
:101012006323642361C033F062C034F063C035F0EF
:1010220064C036F0120090C094F00001956B966B8C
:101032008F35943701E395819451976F9751D8A4D6
:1010420007D0000E8E6F000E8F6F000E906F120091
:1010520093C094F0956B966B9235943701E395812A
:1010620094519C6F9C51D8A407D0000E8E6F000E35
:101072008F6F000E906F12009C517B0F972790C0CC
:101082009CF093519C1B800E9C178F8F928FFF0EAA
:101092009117FF0E9217000E9317000E986F000E15
:1010A200996F000E9A6F070E9B6F8EA106D0915119
:1010B20098279251992393519A23D89090338F3342
:1010C2008E33D8909137923793379B2FEED7090EF4
:1010D2009B6F8EA106D091519827925199239351DB
:1010E2009A23D89090338F338E33D8909A33993392
:1010F20098339B2FEED798C07DF099C07EF09AC0AE
:101102007FF097C080F09CC081F069EC09F07DC04F
:101112008EF07EC08FF07FC090F0120026C02AF0C1
:101122002B6A2C6A25342A3601E32B802A502D6E35
:101132002D50D8A407D0000E246E000E256E000E8E
:10114200266E120029C02AF02B6A2C6A28342A360D
:1011520001E32B802A50326E3250D8A407D0000E01
:10116200246E000E256E000E266E120032507B0F8A
:101172002D2626C032F02950321A800E3216258EC4
:10118200288EFF0E2716FF0E2816000E2916000EB7
:101192002E6E000E2F6E000E306E070E316E24A0E2
:1011A20006D027502E2628502F2229503022D890A0
:1011B200263225322432D890273628362936312E47
:1011C200EED7090E316E24A006D027502E262850C5
:1011D2002F2229503022D890263225322432D8901C
:1011E20030322F322E32312EEED72EC013F02FC0D6
:1011F20014F030C015F02DC016F032C017F0C1EC5B
:1012020009F013C024F014C025F015C026F0120016
:101212000600FACF01F0FBCF02F0E9CF03F0EACFEC
:1012220004F0E1CF05F0E2CF06F0D9CF07F0DACF34
:1012320008F0F3CF09F0F4CF0AF0F6CF0BF0F7CFB6
:101242000CF0F8CF0DF0F5CF0EF04AC00FF04BC006
:1012520010F04CC011F04DC012F0F294640ED66E34
:10126200C282640E0001CF19D8A409D0010ECF6F3B
:10127200000E496E010E486EC286C28402D0C2962A
:10128200C294C28212C04DF011C04CF010C04BF09B
:101292000FC04AF00EC0F5FF0DC0F8FF0CC0F7FFFB
:1012A2000BC0F6FF0AC0F4FF09C0F3FF08C0DAFF63
:1012B20007C0D9FF06C0E2FF05C0E1FF04C0EAFF94
:1012C20003C0E9FF02C0FBFF01C0FAFF4A9211000E
:1012D20000018051D8B405D07D517E117F11D8A470
:1012E2000CD0000E7D6F000E7E6F000E7F6F12001D
:1012F200802BD8907F337E337D33000E7D15826F35
:10130200000E7E15836FFE0E7F15846F825183114E
:101312008411D8B40CD0ECD7802B010E7D27000E9F
:101322007E23000E7F23D8907F337E337D33000EE1
:101332007D15826F000E7E15836FFF0E7F15846F01
:10134200825183118411D8B406D0E6D78007D89091
:101352007D377E377F377EBF03D0020E8061F6D79E
:1013620080A17E9FD890803380517F138151D8A471
:101372007F8F7DC07DF07EC07EF07FC07FF0120047
:101382001650D8B405D0135014101510D8A40CD090
:10139200000E136E000E146E000E156E1200162A49
:1013A200D890153214321332000E1314186E000E38
:1013B2001414196EFE0E15141A6E185019101A1004
:1013C200D8B40CD0ECD7162A010E1326000E142224
:1013D200000E1522D890153214321332000E131457
:1013E200186E000E1414196EFF0E15141A6E185092
:1013F20019101A10D8B406D0E6D71606D8901336AC
:101402001436153614BE03D0020E1660F6D716A097
:10141200149ED8901632165015121750D8A4158E55
:1014220013C013F014C014F015C015F0120000011F
:101432007E6F0F0E83160F0E9516969496909692C7
:101442008D948D908D929FEC0CF0300E27EC0CF069
:1014520095EC0CF095EC0CF0300E27EC0CF095ECC2
:101462000CF095EC0CF0320E27EC0CF049EC0CF081
:101472000009D8A4FBD749EC0CF00009D8A4FBD78B
:1014820000017E5127EC0CF049EC0CF00009D8A4C5
:10149200FBD7080E27EC0CF049EC0CF00009D8A49D
:1014A200FBD70F0E27EC0CF049EC0CF00009D8A486
:1014B200FBD7010E27EC0CF049EC0CF00009D8A484
:1014C200FBD7040E27EC0CF049EC0CF00009D8A471
:1014D200FBD7800EE2EC0BF01200000E0001826FCF
:1014E20080AF06D07F6D801FD8B0802B010E826F37
:1014F2007EAF06D07D6D7E1FD8B07E2B010E821B83
:10150200000E846F000E836F7F518011D8B41CD0FF
:10151200010E816F04D0D8907F378037812B80AF46
:10152200FAD7D890833784377F517D5D80517E59B9
:10153200D8A005D07F517D5F80517E5B8381D8909A
:1015420080337F33812FEDD78251D8B404D0836D9D
:10155200841FD8B0842B83C07DF084C07EF012003B
:10156200000E0001856F000E866F000E876F000E61
:10157200886F8151821183118411D8B42AD0010E4F
:10158200896F06D0D8908137823783378437892B89
:1015920084AFF8D7D8908537863787378837815117
:1015A2007D5D82517E5983517F5984518059D8A0E3
:1015B20009D081517D5F82517E5B83517F5B845173
:1015C200805B8581D8908433833382338133892F42
:1015D200E1D785C07DF086C07EF087C07FF088C0ED
:1015E20080F01200000E0001826F7EAF06D07D6D8A
:1015F2007E1FD8B07E2B010E826F80AF04D07F6D2C
:10160200801FD8B0802B7F518011D8B418D0010E22
:10161200816F04D0D8907F378037812B80AFFAD783
:101622007F517D5D80517E59D8A004D07F517D5F6E
:1016320080517E5BD89080337F33812FF1D78251E6
:10164200D8B404D07D6D7E1FD8B07E2B7DC07DF0D6
:101652007EC07EF01200000181518211831184113B
:10166200D8B424D0010E856F06D0D8908137823746
:1016720083378437852B84AFF8D781517D5D8251C2
:101682007E5983517F5984518059D8A008D0815105
:101692007D5F82517E5B83517F5B8451805BD890FA
:1016A2008433833382338133852FE7D77DC07DF046
:1016B2007EC07EF07FC07FF080C080F012008E0E70
:1016C20000018D6F06D0D8908833873386338533F7
:1016D2008D2B000E8515896F000E86158A6F000E00
:1016E20087158B6FFF0E88158C6F89518A118B11AC
:1016F2008C11D8A4E8D785C07DF086C07EF087C063
:101702007FF08DC080F0000E816F69EC09F07DC022
:1017120085F07EC086F07FC087F012008E0E236EA9
:1017220006D0D8901E321D321C321B32232A000EE4
:101732001B141F6E000E1C14206E000E1D14216E51
:10174200FF0E1E14226E1F50201021102210D8A44A
:10175200E8D71BC013F01CC014F01DC015F023C045
:1017620016F0000E176EC1EC09F013C01BF014C086
:101772001CF015C01DF012005C0EF66E190EF76E0D
:10178200000EF86E00EE3CF010EE08F00900F5CF06
:10179200EEFFE550E150FAE100EEBCF0160EEE6A03
:1017A200E806FDE1496A486A476A466A456A446A48
:1017B2004A904A92000EF86E080EF76E000109EF89
:1017C20004F000017D6F0F0E95160F0E83160001B7
:1017D2007D518009F00B83128D948D90A9EC0CF051
:1017E2008D82A9EC0CF08D920F0E831600017D39CB
:1017F200F00BF00B8312A9EC0CF08D82A9EC0CF02B
:101802008D92F00E9512120000017D6F0F0E95164B
:101812000F0E831600017D51F00B83128D808D9483
:10182200A9EC0CF08D82A9EC0CF08D920F0E8316B0
:1018320000017D39F00BF00B8312A9EC0CF08D82C4
:10184200A9EC0CF08D92F00E9512120000017D6F42
:101852000F0E95160F0E831600017D51F00B8312A9
:101862008D948D90A9EC0CF08D82A9EC0CF08D92E8
:101872000F0E831600017D39F00BF00B8312A9ECD9
:101882000CF08D82A9EC0CF08D92F00E95121200E4
:101892008D848D90A9EC0CF08D82A9EC0CF083AEB6
:1018A2000AD08D92A9EC0CF08D82A9EC0CF08D92ED
:1018B2008D94010E12008D92A9EC0CF08D82A9EC90
:1018C2000CF08D928D94000E120010D049EC0CF0A9
:1018D2000009D8A4FBD77EC0F6FF7FC0F7FF08003F
:1018E200F55005EC0CF000017E4B7F2B7EC0F6FF1D
:1018F2007FC0F7FF0800F5500009D8B41200E6D700
:1019020000017D517F03F3CF81F0F4CF82F07D514E
:101912008003F35082277E517F03F350822781C0D8
:101922007DF082C07EF01200210E00017D6F760EE6
:10193200E82EFED77D2FFCD700F01200620E0001C8
:101942007D6F650EE82EFED77D2FFCD700D01200EA
:10195200210EE82EFED700F012005E010000000307
:02196200000083
:020000040020DA
:08000000FFFFFFFFFFFFFFFF00
:020000040030CA
:0E000000000C1F1EFF8301FF0FC00FE00F401A
:00000001FF
