:04000000C0EF00F05D
:0600080046827EED06F0C9
:100018004680D8CF62F0E8CF63F0E0CF64F0FACF43
:1000280065F0FBCF66F0E9CF67F0EACF68F0E1CF83
:1000380069F0E2CF6AF0D9CF6BF0DACF6CF0F3CF8A
:100048006DF0F4CF6EF0F6CF6FF0F7CF70F0F8CF19
:1000580071F0F5CF72F046C073F047C074F048C035
:1000680075F049C076F09E9CC4500001616F606BCA
:10007800C3506025446E000E6121456EA42B40508C
:100088004110D8B429D0000E416E000E406E7B0E90
:10009800216E9C0E226E400E236E44C01BF045C09C
:1000A8001CF02BEC09F01BC01EF01CC01FF01DC07B
:1000B80020F004EC06F01EC02DF01FC02EF020C06A
:1000C8002FF08AEC05F02DC09AF02EC09BF02FC0BF
:1000D8009CF030C09DF024D07B0E216E9C0E226EC9
:1000E800400E236E44C01BF045C01CF02BEC09F0F9
:1000F8001BC01EF01CC01FF01DC020F004EC06F051
:100108001EC02DF01FC02EF020C02FF08AEC05F085
:100118002DC09EF02EC09FF02FC0A0F030C0A1F0DF
:1001280076C049F075C048F074C047F073C046F017
:1001380072C0F5FF71C0F8FF70C0F7FF6FC0F6FF1F
:100148006EC0F4FF6DC0F3FF6CC0DAFF6BC0D9FF5F
:100158006AC0E2FF69C0E1FF68C0EAFF67C0E9FF63
:1001680066C0FBFF65C0FAFF64C0E0FF63C0E8FF3C
:0C01780062C0D8FF4690100016EF09F09E
:100800000054613A0054723A00009268000E946EEF
:100810009368BD86BD84BD92BD90CA9CCA9ACA9891
:10082000CA96CA84CA92CA80BF0ECB6EA2C084F098
:10083000A3C085F000018535853384338535853344
:1008400084338451BE6EA2C084F0010E8417843BB1
:10085000BD508419EF0B8419BD6EA335A331856F8C
:10086000A231846F010E8417843B8447BD508419E4
:10087000DF0B8419BD6E9D8C9E9C9F9CC29AC29872
:10088000C286C284C280D08EF28EF28CF086F0884E
:10089000F19AF198F090F092F09CF09E640ED66E72
:1008A000D50ED56E92800B0EC16E950EC06EF29471
:1008B000F28AF184640ED66EBA86BA84280E2FECC2
:1008C00007F0010EBCEC08F00D0E0001846FFB0E6A
:1008D000E82EFED7842FFCD700D0640E0001A419A7
:1008E000D8A4FBD7000EA46F9EC077F09FC078F00D
:1008F000A0C079F0A1C07AF0E80E7B6F030E7C6F88
:10090000000E7D6F000E7E6FC8EC07F077C086F09A
:1009100078C087F09EC077F09FC078F0A0C079F0D3
:10092000A1C07AF0E80E00017B6F030E7C6F000E11
:100930007D6F000E7E6F43EC08F077C096F078C0B4
:1009400097F096C077F097C078F0000E00017A6FAC
:10095000640E796F85EC07F077C088F078C089F075
:1009600096C077F097C078F0000E00017A6F640EA1
:10097000796F0AEC08F077C096F078C097F096C0CF
:1009800077F097C078F0000E00017A6F0A0E796F49
:1009900085EC07F077C08AF078C08BF096C077F0CE
:1009A00097C078F0000E00017A6F0A0E796F0AEC9A
:1009B00008F077C08CF078C08DF09AC077F09BC0BB
:1009C00078F09CC079F09DC07AF0E80E00017B6F52
:1009D000030E7C6F000E7D6F000E7E6FC8EC07F07B
:1009E00077C08EF078C08FF09AC077F09BC078F017
:1009F0009CC079F09DC07AF0E80E00017B6F030E79
:100A00007C6F000E7D6F000E7E6F43EC08F077C0A8
:100A100098F078C099F098C077F099C078F0000EFF
:100A200000017A6F640E796F85EC07F077C090F063
:100A300078C091F098C077F099C078F0000E00016E
:100A40007A6F640E796F0AEC08F077C098F078C07E
:100A500099F098C077F099C078F0000E00017A6F95
:100A60000A0E796F85EC07F077C092F078C093F0AA
:100A700098C077F099C078F0000E00017A6F0A0EE6
:100A8000796F0AEC08F077C094F078C095F0800E8A
:100A9000BCEC08F0010E0001786F080E796FFBECDA
:100AA00008F000018651300F9AEC08F02C0E9AECF9
:100AB00008F000018851300F9AEC08F000018A51CB
:100AC000300F9AEC08F000018C51300F9AEC08F0CE
:100AD000880EBCEC08F0050E0001786F080E796FE7
:100AE000FBEC08F000018E51300F9AEC08F02C0E50
:100AF0009AEC08F000019051300F9AEC08F00001D8
:100B00009251300F9AEC08F000019451300F9AEC9A
:100B100008F0E3D62FC031F0326A336A2E34313612
:100B200001E3328031503B6E3B50D8A409D0000E17
:100B30002D6E000E2E6E000E2F6E000E306E120007
:100B4000170E316E2DC032F02EC033F02FC034F0AE
:100B50003128356E04D0D890343233323232352ECB
:100B6000FAD73250366E2E8EFF0E2D16FF0E2E1631
:100B7000000E2F162D50376E2E50386E2F50396EB6
:100B80003A6A8E0E3B5E3BAE16D03B50800A8F0F0A
:100B9000D8B009D0000E2D6E000E2E6E000E2F6EF6
:100BA000000E306E1200D8903A3239323832373275
:100BB0003B3EF9D715D0170E3B640FD0000E2D6EBB
:100BC000000E2E6E000E2F6E000E306E1200D890AA
:100BD0003736383639363A363B063B50D8A4F7D745
:100BE0003650D8B408D03A1E391E381E376C000E65
:100BF000382239223A2237C02DF038C02EF039C0C1
:100C00002FF03AC030F0120020C024F0256A266A86
:100C10001F34243601E325802450276E2750D8A4A2
:100C200007D0000E1E6E000E1F6E000E206E12000A
:100C300023C024F0256A266A2234243601E3258065
:100C400024502C6E2C50D8A407D0000E1E6E000E1F
:100C50001F6E000E206E12002C507B0F272620C026
:100C60002CF023502C1A800E2C161F8E228EFF0E75
:100C70002116FF0E2216000E2316000E286E000EFF
:100C8000296E000E2A6E070E2B6E1EA006D0215074
:100C900028262250292223502A22D89020321F327F
:100CA0001E32D8902136223623362B2EEED7090E4F
:100CB0002B6E1EA006D02150282622502922235018
:100CC0002A22D89020321F321E32D8902A3229325E
:100CD00028322B2EEED728C013F029C014F02AC0DA
:100CE00015F027C016F02CC017F0D8EC06F013C092
:100CF0001EF014C01FF015C020F012000600FACF3D
:100D000001F0FBCF02F0E9CF03F0EACF04F0E1CF2E
:100D100005F0E2CF06F0D9CF07F0DACF08F0F3CF35
:100D200009F0F4CF0AF0F6CF0BF0F7CF0CF0F8CFC4
:100D30000DF0F5CF0EF046C00FF047C010F048C0E0
:100D400011F049C012F0F294640ED66EC282640EA5
:100D50000001A419D8A406D0000EA46F000E416EA5
:100D6000010E406E12C049F011C048F010C047F0AB
:100D70000FC046F00EC0F5FF0DC0F8FF0CC0F7FF26
:100D80000BC0F6FF0AC0F4FF09C0F3FF08C0DAFF8A
:100D900007C0D9FF06C0E2FF05C0E1FF04C0EAFFBB
:100DA00003C0E9FF02C0FBFF01C0FAFF4692110039
:100DB0001650D8B405D0135014101510D8A40CD068
:100DC000000E136E000E146E000E156E1200162A21
:100DD000D890153214321332000E1314186E000E10
:100DE0001414196EFE0E15141A6E185019101A10DC
:100DF000D8B40CD0ECD7162A010E1326000E1422FC
:100E0000000E1522D890153214321332000E13142E
:100E1000186E000E1414196EFF0E15141A6E185069
:100E200019101A10D8B406D0E6D71606D890133683
:100E30001436153614BE03D0020E1660F6D716A06F
:100E4000149ED8901632165015121750D8A4158E2D
:100E500013C013F014C014F015C015F012000001F7
:100E6000786F0F0E83160F0E9516969496909692A5
:100E70008D948D908D9247EC09F0300EBCEC08F00B
:100E80003DEC09F03DEC09F0300EBCEC08F03DEC17
:100E900009F03DEC09F0320EBCEC08F0DEEC08F095
:100EA0000009D8A4FBD7DEEC08F00009D8A4FBD7D2
:100EB00000017851BCEC08F0DEEC08F00009D8A481
:100EC000FBD7080EBCEC08F0DEEC08F00009D8A453
:100ED000FBD70F0EBCEC08F0DEEC08F00009D8A43C
:100EE000FBD7010EBCEC08F0DEEC08F00009D8A43A
:100EF000FBD7040EBCEC08F0DEEC08F00009D8A427
:100F0000FBD7800E77EC08F01200000E00017C6F1A
:100F10007AAF06D0796D7A1FD8B07A2B010E7C6F2C
:100F200078AF06D0776D781FD8B0782B010E7C1B78
:100F3000000E7E6F000E7D6F79517A11D8B41CD0EF
:100F4000010E7B6F04D0D89079377A377B2B7AAF3C
:100F5000FAD7D8907D377E377951775D7A517859B5
:100F6000D8A005D07951775F7A51785B7D81D89090
:100F70007A3379337B2FEDD77C51D8B404D07D6D93
:100F80007E1FD8B07E2B7DC077F07EC078F0120037
:100F9000000E00017F6F000E806F000E816F000E4B
:100FA000826F7B517C117D117E11D8B42AD0010E45
:100FB000836F06D0D8907B377C377D377E37832B85
:100FC0007EAFF8D7D8907F378037813782377B5113
:100FD000775D7C5178597D5179597E517A59D8A0E5
:100FE00009D07B51775F7C51785B7D51795B7E5175
:100FF0007A5B7F81D8907E337D337C337B33832F44
:10100000E1D77FC077F080C078F081C079F082C0EE
:101010007AF01200000E00017C6F78AF06D0776D79
:10102000781FD8B0782B010E7C6F7AAF04D0796D21
:101030007A1FD8B07A2B79517A11D8B418D0010E12
:101040007B6F04D0D89079377A377B2B7AAFFAD779
:101050007951775D7A517859D8A004D07951775F6A
:101060007A51785BD8907A3379337B2FF1D77C51E2
:10107000D8B404D0776D781FD8B0782B77C077F0CC
:1010800078C078F0120000017B517C117D117E1137
:10109000D8B424D0010E7F6F06D0D8907B377C3730
:1010A0007D377E377F2B7EAFF8D77B51775D7C51C4
:1010B00078597D5179597E517A59D8A008D07B5101
:1010C000775F7C51785B7D51795B7E517A5BD890FC
:1010D0007E337D337C337B337F2FE7D777C077F048
:1010E00078C078F079C079F07AC07AF01200000107
:1010F000776F0F0E95160F0E83160001775180093A
:10110000F00B83128D948D9051EC09F08D8251EC8F
:1011100009F08D920F0E831600017739F00BF00B5A
:10112000831251EC09F08D8251EC09F08D92F00E92
:10113000951212000001776F0F0E95160F0E831691
:1011400000017751F00B83128D808D9451EC09F0E2
:101150008D8251EC09F08D920F0E831600017739C4
:10116000F00BF00B831251EC09F08D8251EC09F079
:101170008D92F00E951212000001776F0F0E9516EA
:101180000F0E831600017751F00B83128D948D9012
:1011900051EC09F08D8251EC09F08D920F0E8316FF
:1011A00000017739F00BF00B831251EC09F08D82BE
:1011B00051EC09F08D92F00E951212008D848D90F5
:1011C00051EC09F08D8251EC09F083AE0AD08D927A
:1011D00051EC09F08D8251EC09F08D928D94010E45
:1011E00012008D9251EC09F08D8251EC09F08D9234
:1011F0008D94000E120010D0DEEC08F00009D8A487
:10120000FBD778C0F6FF79C0F7FF0800F5509AECDD
:1012100008F00001784B792B78C0F6FF79C0F7FF12
:101220000800F5500009D8B41200E6D700EE9AF095
:101230000B0EEE6AE806FDE100EE3CF00A0EEE6AE7
:10124000E806FDE146904692000EF86E080EF76E35
:10125000000105EF04F01BC013F01CC014F0156A68
:101260008E0E166E000E176ED8EC06F013C01BF033
:1012700014C01CF015C01DF01200210E0001776F84
:10128000760EE82EFED7772FFCD700F01200620E04
:101290000001776F650EE82EFED7772FFCD700D0C0
:0C12A0001200210EE82EFED700F0120014
:020000040020DA
:08000000FFFFFFFFFFFFFFFF00
:020000040030CA
:0E000000000C1F1EFF8301FF0FC00FE00F401A
:00000001FF
