:0400000007EF00F016
:0A00080041827CED06F0EEEF08F0F7
:1008000000417475616C3A200052617A616F3A2040
:10081000005265663A200000000E00016D6F000E68
:100820006C6F9268000E946E9368BD86BD84BD9215
:10083000BD90CA9CCA9ACA98CA96CA84CA92CA80EB
:10084000BF0ECB6E70C03EF071C03FF03F343F3200
:100850003E323F343F323E323E50BE6E70C03EF0BC
:10086000010E3E163E3ABD503E18EF0B3E18BD6ECF
:10087000713571313F6E70313E6E010E3E163E3A5B
:100880003E46BD503E18DF0B3E18BD6E9D8C9E9CB3
:100890009F9CC29AC298C296C294D08EF28EF28C5D
:1008A000F086F088F19AF198F090F092F09CF09E2A
:1008B000D58ED59CD59AD596D594D592D590F294CF
:1008C000F28AF184F90ED76E7D0ED66EBA86BA849E
:1008D000280E8BEC07F0010E98EC08F00D0E3E6E22
:1008E000FC0EE82EFED73E2EFCD7800E98EC08F0CA
:1008F000110E166E080E176ED4EC08F0890E98ECE7
:1009000008F0010E166E080E176ED4EC08F0C30E38
:1009100098EC08F0090E166E080E176ED4EC08F06D
:10092000000E0001686F000E696F000E6A6F000E06
:100930006B6F7B0E236E9C0E246E400E256E6EC078
:100940001DF06FC01EF007EC09F01DC020F01EC0A6
:1009500021F01FC022F09CEC05F020C02FF021C038
:1009600030F022C031F022EC05F02FC068F030C02A
:1009700069F031C06AF032C06BF068C015F069C030
:1009800016F06AC017F06BC018F0E80E196E030E6F
:100990001A6E000E1B6E000E1C6E16EC06F015C0D3
:1009A00060F016C061F068C015F069C016F06AC04A
:1009B00017F06BC018F0E80E196E030E1A6E000ED9
:1009C0001B6E000E1C6E35EC07F015C06CF016C0E7
:1009D0006DF06CC015F06DC016F0000E186E640E50
:1009E000176EDFEC07F015C062F016C063F06CC044
:1009F00015F06DC016F0000E186E640E176E21EC27
:100A000008F015C06CF016C06DF06CC015F06DC02C
:100A100016F0000E186E0A0E176EDFEC07F015C008
:100A200064F016C065F06CC015F06DC016F0000ED5
:100A3000186E0A0E176E21EC08F015C066F016C08D
:100A400067F06ED731C033F0346A356A30343336EC
:100A500001E3348033503D6E3D50D8A409D0000EE0
:100A60002F6E000E306E000E316E000E326E1200D0
:100A7000170E336E2FC034F030C035F031C036F071
:100A80003328376E04D0D890363235323432372E90
:100A9000FAD73450386E308EFF0E2F16FF0E3016F8
:100AA000000E31162F50396E30503A6E31503B6E79
:100AB0003C6A8E0E3D5E3DAE16D03D50800A8F0FD3
:100AC000D8B009D0000E2F6E000E306E000E316EC1
:100AD000000E326E1200D8903C323B323A3239323C
:100AE0003D3EF9D715D0170E3D640FD0000E2F6E86
:100AF000000E306E000E316E000E326E1200D89075
:100B000039363A363B363C363D063D50D8A4F7D709
:100B10003850D8B408D03C1E3B1E3A1E396C000E2B
:100B20003A223B223C2239C02FF03AC030F03BC081
:100B300031F03CC032F0120022C026F0276A286A49
:100B40002134263601E327802650296E2950D8A467
:100B500007D0000E206E000E216E000E226E1200D5
:100B600025C026F0276A286A2434263601E3278028
:100B700026502E6E2E50D8A407D0000E206E000EE8
:100B8000216E000E226E12002E507B0F292622C0ED
:100B90002EF025502E1A800E2E16218E248EFF0E3A
:100BA0002316FF0E2416000E2516000E2A6E000EC8
:100BB0002B6E000E2C6E070E2D6E20A006D023503B
:100BC0002A2624502B2225502C22D8902232213242
:100BD0002032D8902336243625362D2EEED7090E16
:100BE0002D6E20A006D023502A2624502B222550DB
:100BF0002C22D890223221322032D8902C322B3223
:100C00002A322D2EEED72AC015F02BC016F02CC09C
:100C100017F029C018F02EC019F0DEEC06F015C050
:100C200020F016C021F017C022F01200000E1E6E38
:100C30001CAE0AD01C1E1B1E1A1E196C000E1A2296
:100C40001B221C22010E1E6E18AE0AD0181E171E83
:100C5000161E156C000E162217221822010E1E1ADF
:100C6000000E1F6E000E206E000E216E000E226E12
:100C700019501A101B101C10D8B42AD0010E1D6E6A
:100C800006D0D89019361A361B361C361D2A1CAED3
:100C9000F8D7D8901F362036213622361950155CE9
:100CA0001A5016581B5017581C501858D8A009D065
:100CB0001950155E1A50165A1B50175A1C50185AC4
:100CC0001F80D8901C321B321A3219321D2EE1D7E8
:100CD0001E50D8B408D0221E211E201E1F6C000EEC
:100CE0002022212222221FC015F020C016F021C090
:100CF00017F022C018F012000600FACF03F0FBCF65
:100D000004F0E9CF05F0EACF06F0E1CF07F0E2CF3B
:100D100008F0D9CF09F0DACF0AF0F3CF0BF0F4CF17
:100D20000CF0F6CF0DF0F7CF0EF0F8CF0FF0F5CFB7
:100D300010F041C011F042C012F043C013F044C0A3
:100D400014F0F294C282C450026E016AC3500124AE
:100D500000016E6F000E02206F6FF90ED76E7D0ED0
:100D6000D66E402A320E4018D8A402D0000E406E33
:100D700014C044F013C043F012C042F011C041F05F
:100D800010C0F5FF0FC0F8FF0EC0F7FF0DC0F6FF53
:100D90000CC0F4FF0BC0F3FF0AC0DAFF09C0D9FF93
:100DA00008C0E2FF07C0E1FF06C0EAFF05C0E9FF97
:100DB00004C0FBFF03C0FAFF419211001850D8B4E1
:100DC00005D0155016101710D8A40CD0000E156EB3
:100DD000000E166E000E176E1200182AD8901732E9
:100DE00016321532000E15141A6E000E16141B6EF4
:100DF000FE0E17141C6E1A501B101C10D8B40CD009
:100E0000ECD7182A010E1526000E1622000E172206
:100E1000D890173216321532000E15141A6E000EC5
:100E200016141B6EFF0E17141C6E1A501B101C108C
:100E3000D8B406D0E6D71806D89015361636173629
:100E400016BE03D0020E1860F6D718A0169ED890D2
:100E50001832185017121950D8A4178E15C015F053
:100E600016C016F017C017F01200000E1E6E18AE56
:100E70000AD0181E171E161E156C000E16221722F9
:100E80001822010E1E6E1CAE08D01C1E1B1E1A1E40
:100E9000196C000E1A221B221C2219501A101B104A
:100EA0001C10D8B424D0010E1D6E06D0D89019366F
:100EB0001A361B361C361D2A1CAEF8D71950155C85
:100EC0001A5016581B5017581C501858D8A008D044
:100ED0001950155E1A50165A1B50175A1C50185AA2
:100EE000D8901C321B321A3219321D2EE7D71E50F1
:100EF000D8B408D0181E171E161E156C000E162228
:100F00001722182215C015F016C016F017C017F0DA
:100F100018C018F01200166E0F0E83160F0E9516DD
:100F20009694969096928D948D908D9222EC09F0E5
:100F3000300E98EC08F019EC09F019EC09F0300EBD
:100F400098EC08F019EC09F019EC09F0320E98EC65
:100F500008F0B7EC08F00009D8A4FBD7B7EC08F00C
:100F60000009D8A4FBD7165098EC08F0B7EC08F0AD
:100F70000009D8A4FBD7080E98EC08F0B7EC08F0ED
:100F80000009D8A4FBD70F0E98EC08F0B7EC08F0D6
:100F90000009D8A4FBD7010E98EC08F0B7EC08F0D4
:100FA0000009D8A4FBD7040E98EC08F0B7EC08F0C1
:100FB0000009D8A4FBD7800E59EC08F01200000EEF
:100FC0001A6E18AE06D0176C181ED8B0182A010E6B
:100FD0001A6E16AE06D0156C161ED8B0162A010E63
:100FE0001A1A000E1C6E000E1B6E17501810D8B483
:100FF0001CD0010E196E04D0D89017361836192A55
:1010000018AEFAD7D8901B361C361750155C1850FE
:101010001658D8A005D01750155E1850165A1B80C8
:10102000D89018321732192EEDD71A50D8B404D0F0
:101030001B6C1C1ED8B01C2A1BC015F01CC016F05F
:101040001200000E1A6E16AE06D0156C161ED8B021
:10105000162A010E1A6E18AE04D0176C181ED8B0DE
:10106000182A17501810D8B418D0010E196E04D0D1
:10107000D89017361836192A18AEFAD71750155CBB
:1010800018501658D8A004D01750155E1850165A8C
:10109000D89018321732192EF1D71A50D8B404D07C
:1010A000156C161ED8B0162A15C015F016C016F00D
:1010B0001200156E0F0E95160F0E8316155080092F
:1010C000F00B83128D948D902AEC09F08D822AEC1E
:1010D00009F08D920F0E83161538F00BF00B83126A
:1010E0002AEC09F08D822AEC09F08D92F00E95120F
:1010F0001200156E0F0E95160F0E83161550F00B7D
:1011000083128D808D942AEC09F08D822AEC09F0EF
:101110008D920F0E83161538F00BF00B83122AEC0C
:1011200009F08D822AEC09F08D92F00E95121200D2
:10113000156E0F0E95160F0E83161550F00B8312B9
:101140008D948D902AEC09F08D822AEC09F08D9215
:101150000F0E83161538F00BF00B83122AEC09F0F2
:101160008D822AEC09F08D92F00E951212008D847A
:101170008D902AEC09F08D822AEC09F083AE0AD01A
:101180008D922AEC09F08D822AEC09F08D928D94D3
:10119000010E12008D922AEC09F08D822AEC09F0E2
:1011A0008D928D94000E12000FD0B7EC08F000095C
:1011B000D8A4FBD716C0F6FF17C0F7FF0800F550FC
:1011C00079EC08F0164A172A16C0F6FF17C0F7FF89
:1011D0000800F5500009D8B41200E7D75E0EF66E8D
:1011E000120EF76E000EF86E0900F5CF70F00900D0
:1011F000F5CF71F000016F6B6E6B406A41904192C8
:10120000000EF86E080EF76E00010CEF04F01DC022
:1012100015F01EC016F0176A8E0E186E000E196EAD
:10122000DEEC06F015C01DF016C01EF017C01FF052
:101230001200210E156E760EE82EFED7152EFCD765
:1012400000D01200620E156E660EE82EFED7152E27
:10125000FCD71200210EE82EFED700F01200E600A7
:020000040020DA
:08000000FFFFFFFFFFFFFFFF00
:020000040030CA
:0E000000000C1F1EFF8301FF0FC00FE00F401A
:00000001FF
