:04000000F4EF00F029
:060008004A82E0ED06F063
:100018004A80D8CF62F0E8CF63F0E0CF64F0FACF3F
:1000280065F0FBCF66F0E9CF67F0EACF68F0E1CF83
:1000380069F0E2CF6AF0D9CF6BF0DACF6CF0F3CF8A
:100048006DF0F4CF6EF0F6CF6FF0F7CF70F0F8CF19
:1000580071F0F5CF72F04AC073F04BC074F04CC029
:1000680075F04DC076F09E9C0001AA2BC450616FBC
:10007800606BC3506025486E000E6121496E465082
:100088004710D8B45DD0000E476E000E466E670E5E
:10009800276E9C0E286E400E296E48C01BF049C082
:1000A8001CF0E5EC09F01BC024F01CC025F01DC0B5
:1000B80026F066EC06F024C033F025C034F026C0E4
:1000C80035F0ECEC05F033C042F034C043F035C0F5
:1000D80044F036C045F0C30E276EF50E286E3C0E70
:1000E800296E42C01BF043C01CF044C01DF045C03F
:1000F8001EF0DFEC08F01BC024F01CC025F01DC06A
:1001080026F066EC06F024C033F025C034F026C093
:1001180035F0ECEC05F033C042F034C043F035C0A4
:1001280044F036C045F05E0E4224426E010E432074
:10013800436E000E4420446E000E4520456E24D0C8
:10014800670E276E9C0E286E400E296E48C01BF065
:1001580049C01CF0E5EC09F01BC024F01CC025F0D8
:100168001DC026F066EC06F024C033F025C034F03C
:1001780026C035F0ECEC05F033C0A6F034C0A7F08B
:1001880035C0A8F036C0A9F076C04DF075C04CF067
:1001980074C04BF073C04AF072C0F5FF71C0F8FF2D
:1001A80070C0F7FF6FC0F6FF6EC0F4FF6DC0F3FFBD
:1001B8006CC0DAFF6BC0D9FF6AC0E2FF69C0E1FF1B
:1001C80068C0EAFF67C0E9FF66C0FBFF65C0FAFFC9
:1001D80064C0E0FF63C0E8FF62C0D8FF4A90100027
:0401E8000DEF09F01E
:100800000052617A616F3A0054613A0054723A00C2
:0108100000E7
:100812009268000E946E9368BD86BD84BD92BD90B1
:10082200CA9CCA9ACA98CA96CA84CA92CA80BF0E79
:10083200CB6EABC084F0ACC085F00001D89085339C
:100842008433D890853384338451BE6EABC084F038
:10085200010E8417843BBD508419EF0B8419BD6EC1
:10086200D890AC31856FAB31846F010E8417843B15
:100872008447BD508419DF0B8419BD6E9D8C9E9CEC
:100882009F9CC29AC298C296C294C280D08EF28EA7
:10089200F28CF086F088F19AF198F090F092F09C48
:1008A200F09EC50ED56E640ED66E92800B0EC16E92
:1008B200950EC06EF294F28AF184640ED66EBA86F8
:1008C200BA84280E97EC07F0010E77EC09F00D0EB2
:1008D2000001846FFB0EE82EFED7842FFCD700D0D8
:1008E200640E0001AA19D8A4FBD7A2C088F0A3C045
:1008F20089F0A6C077F0A7C078F0A8C079F0A9C0A7
:100902007AF0E80E7B6F030E7C6F000E7D6F000E97
:100912007E6FABEC08F077C09EF078C09FF09EC06F
:1009220077F09FC078F0000E00017A6F640E796F45
:10093200EDEC07F077C08AF078C08BF09EC077F0BC
:100942009FC078F0000E00017A6F640E796F72EC2E
:1009520008F077C09EF078C09FF09EC077F09FC0ED
:1009620078F0000E00017A6F0A0E796FEDEC07F055
:1009720077C08CF078C08DF09EC077F09FC078F081
:10098200000E00017A6F0A0E796F72EC08F077C0E0
:100992008EF078C08FF042C077F043C078F044C048
:1009A20079F045C07AF0E80E00017B6F030E7C6F90
:1009B200000E7D6F000E7E6FABEC08F077C0A0F0EA
:1009C20078C0A1F0A0C077F0A1C078F0000E0001BD
:1009D2007A6F640E796FEDEC07F077C090F078C013
:1009E20091F0A0C077F0A1C078F0000E00017A6FFC
:1009F200640E796F72EC08F077C0A0F078C0A1F0B5
:100A0200A0C077F0A1C078F0000E00017A6F0A0E44
:100A1200796FEDEC07F077C092F078C093F0A0C048
:100A220077F0A1C078F0000E00017A6F0A0E796F9C
:100A320072EC08F077C094F078C095F0800E77ECF5
:100A420009F0080E0001786F080E796FB6EC09F014
:100A520000018A51300F55EC09F000018C51300F22
:100A620055EC09F02C0E55EC09F000018E51300FB7
:100A720055EC09F0890E77EC09F00C0E0001786F45
:100A8200080E796FB6EC09F000019051300F55EC69
:100A920009F000019251300F55EC09F02C0E55EC83
:100AA20009F000019451300F55EC09F0A6C084F012
:100AB200A7C085F0A8C086F0A9C087F00001841FF6
:100AC200851F861F871F842B000E8523862387237D
:100AD20042508425A26F43508521A36F4450862142
:100AE200A46F45508721A56FADC077F0AEC078F0F6
:100AF200A2C079F0A3C07AF0D1EC09F077C0ABF0D4
:100B020078C0ACF0C30E77EC09F0010E0001786FEB
:100B1200080E796FB6EC09F0A2C077F0A3C078F0A6
:100B2200A4C079F0A5C07AF0640E00017B6F000EBC
:100B32007C6F000E7D6F000E7E6F30EC08F077C088
:100B420096F078C097F0A2C077F0A3C078F0A4C066
:100B520079F0A5C07AF0640E00017B6F000E7C6F05
:100B6200000E7D6F000E7E6FABEC08F077C09CF03C
:100B720078C09DF09CC077F09DC078F0000E000117
:100B82007A6F0A0E796FEDEC07F077C098F078C0B3
:100B920099F09CC077F09DC078F0000E00017A6F4A
:100BA2000A0E796F72EC08F077C09AF078C09BF069
:100BB20000019651300F55EC09F000019851300FA9
:100BC20055EC09F000019A51300F55EC09F0250E51
:100BD20055EC09F085D635C037F0386A396A3434B5
:100BE200373601E338803750416E4150D8A409D0DE
:100BF200000E336E000E346E000E356E000E366E31
:100C02001200170E376E33C038F034C039F035C0D9
:100C12003AF037283B6E04D0D8903A323932383223
:100C22003B2EFAD738503C6E348EFF0E3316FF0E31
:100C32003416000E351633503D6E34503E6E35502C
:100C42003F6E406A8E0E415E41AE16D04150800A20
:100C52008F0FD8B009D0000E336E000E346E000E26
:100C6200356E000E366E1200D89040323F323E3260
:100C72003D32413EF9D715D0170E41640FD0000E18
:100C8200336E000E346E000E356E000E366E12009C
:100C9200D8903D363E363F36403641064150D8A4C4
:100CA200F7D73C50D8B408D0401E3F1E3E1E3D6CC4
:100CB200000E3E223F2240223DC033F03EC034F0BF
:100CC2003FC035F040C036F0120026C02AF02B6A31
:100CD2002C6A25342A3601E32B802A502D6E2D50A2
:100CE200D8A407D0000E246E000E256E000E266ECC
:100CF200120029C02AF02B6A2C6A28342A3601E312
:100D02002B802A50326E3250D8A407D0000E246EA7
:100D1200000E256E000E266E120032507B0F2D261D
:100D220026C032F02950321A800E3216258E288EB5
:100D3200FF0E2716FF0E2816000E2916000E2E6E25
:100D4200000E2F6E000E306E070E316E24A006D0FC
:100D520027502E2628502F2229503022D890263272
:100D620025322432D890273628362936312EEED72E
:100D7200090E316E24A006D027502E2628502F228D
:100D820029503022D890263225322432D89030325F
:100D92002F322E32312EEED72EC013F02FC014F088
:100DA20030C015F02DC016F032C017F040EC07F03D
:100DB20013C024F014C025F015C026F0120006005E
:100DC200FACF01F0FBCF02F0E9CF03F0EACF04F053
:100DD200E1CF05F0E2CF06F0D9CF07F0DACF08F085
:100DE200F3CF09F0F4CF0AF0F6CF0BF0F7CF0CF007
:100DF200F8CF0DF0F5CF0EF04AC00FF04BC010F057
:100E02004CC011F04DC012F0F294640ED66EC28244
:100E1200640E0001AA19D8A409D0010EAA6F000E0F
:100E2200476E010E466EC286C28402D0C296C2943A
:100E3200C28212C04DF011C04CF010C04BF00FC076
:100E42004AF00EC0F5FF0DC0F8FF0CC0F7FF0BC053
:100E5200F6FF0AC0F4FF09C0F3FF08C0DAFF07C0BB
:100E6200D9FF06C0E2FF05C0E1FF04C0EAFF03C0EC
:100E7200E9FF02C0FBFF01C0FAFF4A9211001650BF
:100E8200D8B405D0135014101510D8A40CD0000EED
:100E9200136E000E146E000E156E1200162AD890F4
:100EA200153214321332000E1314186E000E14147D
:100EB200196EFE0E15141A6E185019101A10D8B4A5
:100EC2000CD0ECD7162A010E1326000E1422000EA7
:100ED2001522D890153214321332000E1314186EE4
:100EE200000E1414196EFF0E15141A6E18501910F4
:100EF2001A10D8B406D0E6D71606D8901336143690
:100F0200153614BE03D0020E1660F6D716A0149E34
:100F1200D8901632165015121750D8A4158E13C039
:100F220013F014C014F015C015F012000001786F10
:100F32000F0E83160F0E95169694969096928D9498
:100F42008D908D9201EC0AF0300E77EC09F0F7ECFF
:100F520009F0F7EC09F0300E77EC09F0F7EC09F044
:100F6200F7EC09F0320E77EC09F099EC09F0000980
:100F7200D8A4FBD799EC09F00009D8A4FBD700014B
:100F8200785177EC09F099EC09F00009D8A4FBD765
:100F9200080E77EC09F099EC09F00009D8A4FBD708
:100FA2000F0E77EC09F099EC09F00009D8A4FBD7F1
:100FB200010E77EC09F099EC09F00009D8A4FBD7EF
:100FC200040E77EC09F099EC09F00009D8A4FBD7DC
:100FD200800E32EC09F01200000E00017C6F7AAF35
:100FE20006D0796D7A1FD8B07A2B010E7C6F78AF5C
:100FF20006D0776D781FD8B0782B010E7C1B000EBF
:101002007E6F000E7D6F79517A11D8B41CD0010E1B
:101012007B6F04D0D89079377A377B2B7AAFFAD7A7
:10102200D8907D377E377951775D7A517859D8A03B
:1010320005D07951775F7A51785B7D81D8907A3388
:1010420079337B2FEDD77C51D8B404D07D6D7E1FD0
:10105200D8B07E2B7DC077F07EC078F01200000EF3
:1010620000017F6F000E806F000E816F000E826F95
:101072007B517C117D117E11D8B42AD0010E836F71
:1010820006D0D8907B377C377D377E37832B7EAF77
:10109200F8D7D8907F378037813782377B51775D99
:1010A2007C5178597D5179597E517A59D8A009D00D
:1010B2007B51775F7C51785B7D51795B7E517A5BA6
:1010C2007F81D8907E337D337C337B33832FE1D78E
:1010D2007FC077F080C078F081C079F082C07AF06A
:1010E2001200000E00017C6F78AF06D0776D781F7A
:1010F200D8B0782B010E7C6F7AAF04D0796D7A1F4D
:10110200D8B07A2B79517A11D8B418D0010E7B6FEE
:1011120004D0D89079377A377B2B7AAFFAD77951C6
:10112200775D7A517859D8A004D07951775F7A5196
:10113200785BD8907A3379337B2FF1D77C51D8B44E
:1011420004D0776D781FD8B0782B77C077F078C04D
:1011520078F0120000017B517C117D117E11D8B410
:1011620024D0010E7F6F06D0D8907B377C377D3735
:101172007E377F2B7EAFF8D77B51775D7C517859D4
:101182007D5179597E517A59D8A008D07B51775F29
:101192007C51785B7D51795B7E517A5BD8907E334E
:1011A2007D337C337B337F2FE7D777C077F078C0EE
:1011B20078F079C079F07AC07AF012008E0E236E40
:1011C20006D0D8901E321D321C321B32232A000E4A
:1011D2001B141F6E000E1C14206E000E1D14216EB7
:1011E200FF0E1E14226E1F50201021102210D8A4B0
:1011F200E8D71BC013F01CC014F01DC015F023C0AB
:1012020016F0000E176E40EC07F013C01BF014C06E
:101212001CF015C01DF01200200EF66E140EF76EB3
:10122200000EF86E00EEABF010EE04F00900F5CF00
:10123200EEFFE550E150FAE100EEA2F0090EEE6A8F
:10124200E806FDE100EE42F0080EEE6AE806FDE176
:101252004A904A92000EF86E080EF76E000109EFEE
:1012620004F00001776F0F0E95160F0E8316000122
:1012720077518009F00B83128D948D900BEC0AF05C
:101282008D820BEC0AF08D920F0E831600017739D6
:10129200F00BF00B83120BEC0AF08D820BEC0AF0D0
:1012A2008D92F00E951212000001776F0F0E9516B7
:1012B2000F0E831600017751F00B83128D808D94EF
:1012C2000BEC0AF08D820BEC0AF08D920F0E831656
:1012D20000017739F00BF00B83120BEC0AF08D82D0
:1012E2000BEC0AF08D92F00E951212000001776F4E
:1012F2000F0E95160F0E831600017751F00B831215
:101302008D948D900BEC0AF08D820BEC0AF08D928D
:101312000F0E831600017739F00BF00B83120BECE2
:101322000AF08D820BEC0AF08D92F00E95121200EB
:101332008D848D900BEC0AF08D820BEC0AF083AE5B
:101342000AD08D920BEC0AF08D820BEC0AF08D9292
:101352008D94010E12008D920BEC0AF08D820BEC33
:101362000AF08D928D94000E120010D099EC09F0C3
:101372000009D8A4FBD778C0F6FF79C0F7FF0800B0
:10138200F55055EC09F00001784B792B78C0F6FF47
:1013920079C0F7FF0800F5500009D8B41200E6D76B
:1013A200000177517903F3CF7BF0F4CF7CF07751D2
:1013B2007A03F3507C2778517903F3507C277BC062
:1013C20077F07CC078F012001BC013F01CC014F040
:1013D200156A8E0E166E000E176E40EC07F013C0E3
:1013E2001BF014C01CF015C01DF01200210E0001EC
:1013F200776F760EE82EFED7772FFCD700F012001B
:10140200620E0001776F650EE82EFED7772FFCD7AC
:1014120000D01200210EE82EFED700F012000003C9
:021422000003C5
:020000040020DA
:08000000FFFFFFFFFFFFFFFF00
:020000040030CA
:0E000000000C1F1EFF8301FF0FC00FE00F401A
:00000001FF
